{
  "_format": "hh-sol-artifact-1",
  "contractName": "Game",
  "sourceName": "contracts/Game.sol",
  "abi": [
    {
      "inputs": [],
      "stateMutability": "nonpayable",
      "type": "constructor"
    },
    {
      "anonymous": false,
      "inputs": [
        {
          "indexed": true,
          "internalType": "address",
          "name": "previousOwner",
          "type": "address"
        },
        {
          "indexed": true,
          "internalType": "address",
          "name": "newOwner",
          "type": "address"
        }
      ],
      "name": "OwnershipTransferred",
      "type": "event"
    },
    {
      "anonymous": false,
      "inputs": [
        {
          "indexed": true,
          "internalType": "address",
          "name": "killer",
          "type": "address"
        },
        {
          "indexed": true,
          "internalType": "address",
          "name": "victim",
          "type": "address"
        },
        {
          "indexed": false,
          "internalType": "string",
          "name": "room",
          "type": "string"
        }
      ],
      "name": "Pawn",
      "type": "event"
    },
    {
      "anonymous": false,
      "inputs": [
        {
          "indexed": true,
          "internalType": "address",
          "name": "survivor",
          "type": "address"
        },
        {
          "indexed": false,
          "internalType": "string",
          "name": "room",
          "type": "string"
        }
      ],
      "name": "Survive",
      "type": "event"
    },
    {
      "inputs": [
        {
          "internalType": "bytes[]",
          "name": "data",
          "type": "bytes[]"
        }
      ],
      "name": "multicall",
      "outputs": [
        {
          "internalType": "bytes[]",
          "name": "results",
          "type": "bytes[]"
        }
      ],
      "stateMutability": "nonpayable",
      "type": "function"
    },
    {
      "inputs": [],
      "name": "owner",
      "outputs": [
        {
          "internalType": "address",
          "name": "",
          "type": "address"
        }
      ],
      "stateMutability": "view",
      "type": "function"
    },
    {
      "inputs": [
        {
          "internalType": "address",
          "name": "_killer",
          "type": "address"
        },
        {
          "internalType": "address",
          "name": "_victim",
          "type": "address"
        },
        {
          "internalType": "string",
          "name": "_room",
          "type": "string"
        }
      ],
      "name": "pawn",
      "outputs": [],
      "stateMutability": "nonpayable",
      "type": "function"
    },
    {
      "inputs": [],
      "name": "pawn_point",
      "outputs": [
        {
          "internalType": "uint256",
          "name": "",
          "type": "uint256"
        }
      ],
      "stateMutability": "view",
      "type": "function"
    },
    {
      "inputs": [],
      "name": "renounceOwnership",
      "outputs": [],
      "stateMutability": "nonpayable",
      "type": "function"
    },
    {
      "inputs": [
        {
          "internalType": "string",
          "name": "",
          "type": "string"
        }
      ],
      "name": "rooms",
      "outputs": [
        {
          "internalType": "uint256",
          "name": "",
          "type": "uint256"
        }
      ],
      "stateMutability": "view",
      "type": "function"
    },
    {
      "inputs": [
        {
          "internalType": "address",
          "name": "_token_addr",
          "type": "address"
        }
      ],
      "name": "setAddress",
      "outputs": [],
      "stateMutability": "nonpayable",
      "type": "function"
    },
    {
      "inputs": [],
      "name": "survival_point",
      "outputs": [
        {
          "internalType": "uint256",
          "name": "",
          "type": "uint256"
        }
      ],
      "stateMutability": "view",
      "type": "function"
    },
    {
      "inputs": [
        {
          "internalType": "address",
          "name": "_survivor",
          "type": "address"
        },
        {
          "internalType": "string",
          "name": "_room",
          "type": "string"
        }
      ],
      "name": "survive",
      "outputs": [],
      "stateMutability": "nonpayable",
      "type": "function"
    },
    {
      "inputs": [],
      "name": "token_addr",
      "outputs": [
        {
          "internalType": "address",
          "name": "",
          "type": "address"
        }
      ],
      "stateMutability": "view",
      "type": "function"
    },
    {
      "inputs": [
        {
          "internalType": "address",
          "name": "newOwner",
          "type": "address"
        }
      ],
      "name": "transferOwnership",
      "outputs": [],
      "stateMutability": "nonpayable",
      "type": "function"
    }
  ],
  "bytecode": "0x60806040523480156200001c576000806200001962000196565b50505b5060006200002f6200018460201b60201c565b9050806000806101000a816200004462000206565b8173ffffffffffffffffffffffffffffffffffffffff021916908373ffffffffffffffffffffffffffffffffffffffff16021790620000826200026b565b5050508073ffffffffffffffffffffffffffffffffffffffff16600073ffffffffffffffffffffffffffffffffffffffff167f8be0079c531659141344cd1fd0a4f28419497f9722a3daafe3b4186f6b6457e060405160405180910390a3507399a2f223c862fcca7e5b1d3a688cffcaaf37fada600160006101000a816200010962000206565b8173ffffffffffffffffffffffffffffffffffffffff021916908373ffffffffffffffffffffffffffffffffffffffff16021790620001476200026b565b5050506706f05b59d3b2000060028190620001616200026b565b5050506706f05b59d3b20000600381906200017b6200026b565b50505062000331565b60005a62000191620002d2565b905090565b632a2a7adb598160e01b8152600481016020815285602082015260005b86811015620001d3578086015181604084010152602081019050620001b3565b506020828760640184336000905af158600e01573d6000803e3d6000fd5b3d6001141558600a015760016000f35b505050565b6303daa959598160e01b8152836004820152602081602483336000905af158600e01573d6000803e3d6000fd5b3d6001141558600a015760016000f35b8051935060005b604081101562000266576000818301526020810190506200024a565b505050565b6322bd64c0598160e01b8152836004820152846024820152600081604483336000905af158600e01573d6000803e3d6000fd5b3d6001141558600a015760016000f35b60005b6040811015620002cd57600081830152602081019050620002b1565b505050565b6373509064598160e01b8152602081600483336000905af158600e01573d6000803e3d6000fd5b3d6001141558600a015760016000f35b8051935060005b60408110156200032c5760008183015260208101905062000310565b505050565b611cbf80620003416000396000f3fe6080604052348015610019576000806100166110f8565b50505b50600436106100b25760003560e01c8063ac9650d81161007a578063ac9650d814610140578063bbbcc86914610170578063dc500e39146101a0578063e30081a0146101be578063f2fde38b146101da578063fdf79bb2146101f6576100b2565b806357909f29146100c0578063715018a6146100de5780638b56b77a146100e85780638da5cb5b146101065780639013e74514610124575b6000806100bd6110f8565b50505b6100c8610212565b6040516100d59190611a04565b60405180910390f35b6100e661021f565b005b6100f06103ac565b6040516100fd9190611945565b60405180910390f35b61010e6103d9565b60405161011b9190611945565b60405180910390f35b61013e60048036038101906101399190611629565b610409565b005b61015a60048036038101906101559190611708565b610778565b60405161016791906119c0565b60405180910390f35b61018a60048036038101906101859190611791565b6108d2565b6040516101979190611a04565b60405180910390f35b6101a8610907565b6040516101b59190611a04565b60405180910390f35b6101d860048036038101906101d391906115f7565b610914565b005b6101f460048036038101906101ef91906115f7565b610a20565b005b610210600480360381019061020b91906116a2565b610c3b565b005b600261021c611166565b81565b610227610e7a565b73ffffffffffffffffffffffffffffffffffffffff166102456103d9565b73ffffffffffffffffffffffffffffffffffffffff16146102d7576040517f08c379a00000000000000000000000000000000000000000000000000000000081526004018080602001828103825260208152602001807f4f776e61626c653a2063616c6c6572206973206e6f7420746865206f776e6572815250602001915050604051809103906102d46110f8565b50505b600073ffffffffffffffffffffffffffffffffffffffff166000806102fa611166565b906101000a900473ffffffffffffffffffffffffffffffffffffffff1673ffffffffffffffffffffffffffffffffffffffff167f8be0079c531659141344cd1fd0a4f28419497f9722a3daafe3b4186f6b6457e060405160405180910390a360008060006101000a8161036b611166565b8173ffffffffffffffffffffffffffffffffffffffff021916908373ffffffffffffffffffffffffffffffffffffffff160217906103a76111c9565b505050565b60016000906103b9611166565b906101000a900473ffffffffffffffffffffffffffffffffffffffff1681565b6000806000906103e7611166565b906101000a900473ffffffffffffffffffffffffffffffffffffffff16905090565b610411610e7a565b73ffffffffffffffffffffffffffffffffffffffff1661042f6103d9565b73ffffffffffffffffffffffffffffffffffffffff16146104c1576040517f08c379a00000000000000000000000000000000000000000000000000000000081526004018080602001828103825260208152602001807f4f776e61626c653a2063616c6c6572206973206e6f7420746865206f776e6572815250602001915050604051809103906104be6110f8565b50505b600060016000906104d0611166565b906101000a900473ffffffffffffffffffffffffffffffffffffffff1690508073ffffffffffffffffffffffffffffffffffffffff166323b872dd84866002610517611166565b6040518463ffffffff1660e01b815260040161053593929190611960565b6020604051808303816000878061054a61122e565b15801561055f5760008061055c6110f8565b50505b505a610569611291565b505050505050158015610589573d6000803e3d60006105866110f8565b50505b505050506040513d601f19601f820116820180604052508101906105ad919061175f565b508073ffffffffffffffffffffffffffffffffffffffff166323b872dd845a63996d79a5598160e01b8152602081600483336000905af158600e01573d6000803e3d6000fd5b3d6001141558600a015760016000f35b8051925060005b60408110156106245760008183015260208101905061060a565b5050506003610631611166565b6040518463ffffffff1660e01b815260040161064f93929190611960565b6020604051808303816000878061066461122e565b158015610679576000806106766110f8565b50505b505a610683611291565b5050505050501580156106a3573d6000803e3d60006106a06110f8565b50505b505050506040513d601f19601f820116820180604052508101906106c7919061175f565b5060036106d2611166565b6004836040516106e2919061192e565b9081526020016040518091039020600082826106fc611166565b01925050819061070a6111c9565b5050508273ffffffffffffffffffffffffffffffffffffffff168473ffffffffffffffffffffffffffffffffffffffff167fc4b8ef1e826362eabb6864dee52b1a7363d948eee74c0e22bdca96de0a822ada8460405161076a91906119e2565b60405180910390a350505050565b60608282905067ffffffffffffffff8111801561079d5760008061079a6110f8565b50505b506040519080825280602002602001820160405280156107d157816020015b60608152602001906001900390816107bc5790505b50905060005b838390508110156108cb576108a75a63996d79a5598160e01b8152602081600483336000905af158600e01573d6000803e3d6000fd5b3d6001141558600a015760016000f35b8051925060005b604081101561083e57600081830152602081019050610824565b50505085858481811061084d57fe5b905060200281019061085f9190611a1f565b8080601f016020809104026020016040519081016040528093929190818152602001838380828437600081840152601f19601f82011690508083019250505050505050610e8a565b8282815181106108b357fe5b602002602001018190525080806001019150506107d7565b5092915050565b600481805160208101820180518482526020830160208501208183528095505050505050600091509050610904611166565b81565b6003610911611166565b81565b61091c610e7a565b73ffffffffffffffffffffffffffffffffffffffff1661093a6103d9565b73ffffffffffffffffffffffffffffffffffffffff16146109cc576040517f08c379a00000000000000000000000000000000000000000000000000000000081526004018080602001828103825260208152602001807f4f776e61626c653a2063616c6c6572206973206e6f7420746865206f776e6572815250602001915050604051809103906109c96110f8565b50505b80600160006101000a816109de611166565b8173ffffffffffffffffffffffffffffffffffffffff021916908373ffffffffffffffffffffffffffffffffffffffff16021790610a1a6111c9565b50505050565b610a28610e7a565b73ffffffffffffffffffffffffffffffffffffffff16610a466103d9565b73ffffffffffffffffffffffffffffffffffffffff1614610ad8576040517f08c379a00000000000000000000000000000000000000000000000000000000081526004018080602001828103825260208152602001807f4f776e61626c653a2063616c6c6572206973206e6f7420746865206f776e657281525060200191505060405180910390610ad56110f8565b50505b600073ffffffffffffffffffffffffffffffffffffffff168173ffffffffffffffffffffffffffffffffffffffff161415610b67576040517f08c379a0000000000000000000000000000000000000000000000000000000008152600401808060200182810382526026815260200180611c4c6026913960400191505060405180910390610b646110f8565b50505b8073ffffffffffffffffffffffffffffffffffffffff16600080610b89611166565b906101000a900473ffffffffffffffffffffffffffffffffffffffff1673ffffffffffffffffffffffffffffffffffffffff167f8be0079c531659141344cd1fd0a4f28419497f9722a3daafe3b4186f6b6457e060405160405180910390a3806000806101000a81610bf9611166565b8173ffffffffffffffffffffffffffffffffffffffff021916908373ffffffffffffffffffffffffffffffffffffffff16021790610c356111c9565b50505050565b610c43610e7a565b73ffffffffffffffffffffffffffffffffffffffff16610c616103d9565b73ffffffffffffffffffffffffffffffffffffffff1614610cf3576040517f08c379a00000000000000000000000000000000000000000000000000000000081526004018080602001828103825260208152602001807f4f776e61626c653a2063616c6c6572206973206e6f7420746865206f776e657281525060200191505060405180910390610cf06110f8565b50505b60006001600090610d02611166565b906101000a900473ffffffffffffffffffffffffffffffffffffffff1690508073ffffffffffffffffffffffffffffffffffffffff1663a9059cbb84600485604051610d4e919061192e565b9081526020016040518091039020610d64611166565b6040518363ffffffff1660e01b8152600401610d81929190611997565b60206040518083038160008780610d9661122e565b158015610dab57600080610da86110f8565b50505b505a610db5611291565b505050505050158015610dd5573d6000803e3d6000610dd26110f8565b50505b505050506040513d601f19601f82011682018060405250810190610df9919061175f565b506000600483604051610e0c919061192e565b90815260200160405180910390208190610e246111c9565b5050508273ffffffffffffffffffffffffffffffffffffffff167fa1bfedffab2bfc08cc23df0638eda67776ca79213e123c63686fa7fc6638d40a83604051610e6d91906119e2565b60405180910390a2505050565b60005a610e85611391565b905090565b6060610eaf8383604051806060016040528060278152602001611c7260279139610eb7565b905092915050565b6060610ec284610ffa565b610f20576040517f08c379a0000000000000000000000000000000000000000000000000000000008152600401808060200182810382526026815260200180611c996026913960400191505060405180910390610f1d6110f8565b50505b6000808573ffffffffffffffffffffffffffffffffffffffff16856040518082805190602001908083835b60208310610f6e5780518252602082019150602081019050602083039250610f4b565b6001836020036101000a038019825116818451168082178552505050505050905001915050600060405180830381855a610fa66113ee565b50505050509150503d8060008114610fda576040519150601f19603f3d011682016040523d82523d6000602084013e610fdf565b606091505b5091509150610fef828286611014565b925050509392505050565b6000808261100661122e565b905060008111915050919050565b60608315611024578290506110f1565b600083511115611045578251808460200161103d6110f8565b5050506110f0565b816040517f08c379a00000000000000000000000000000000000000000000000000000000081526004018080602001828103825283818151815260200191508051906020019080838360005b838110156110ac578082015181840152602081019050611091565b50505050905090810190601f1680156110d95780820380516001836020036101000a031916815260200191505b5092505050604051809103906110ed6110f8565b50505b5b9392505050565b632a2a7adb598160e01b8152600481016020815285602082015260005b86811015611133578086015181604084010152602081019050611115565b506020828760640184336000905af158600e01573d6000803e3d6000fd5b3d6001141558600a015760016000f35b505050565b6303daa959598160e01b8152836004820152602081602483336000905af158600e01573d6000803e3d6000fd5b3d6001141558600a015760016000f35b8051935060005b60408110156111c4576000818301526020810190506111aa565b505050565b6322bd64c0598160e01b8152836004820152846024820152600081604483336000905af158600e01573d6000803e3d6000fd5b3d6001141558600a015760016000f35b60005b60408110156112295760008183015260208101905061120f565b505050565b638435035b598160e01b8152836004820152602081602483336000905af158600e01573d6000803e3d6000fd5b3d6001141558600a015760016000f35b8051935060005b604081101561128c57600081830152602081019050611272565b505050565b6385979f76598160e01b81526112d0565b6000819050818311156112b3578290505b92915050565b6000819050818310156112ca578290505b92915050565b836004820152846024820152606060448201528760648201526084810160005b8981101561130b5780890151818301526020810190506112f0565b506060828a60a40184336000905af158600e01573d6000803e3d6000fd5b3d6001141558600a015760016000f35b815160408301513d6000853e8c8c82606087013350600060045af150596113608e3d6112b9565b8d0161136c81876112a2565b5b82811015611384576000815260208101905061136d565b50839e5050505050505050565b6373509064598160e01b8152602081600483336000905af158600e01573d6000803e3d6000fd5b3d6001141558600a015760016000f35b8051935060005b60408110156113e9576000818301526020810190506113cf565b505050565b63ffe73914598160e01b815261142d565b600081905081831115611410578290505b92915050565b600081905081831015611427578290505b92915050565b836004820152846024820152606060448201528660648201526084810160005b8881101561146857808801518183015260208101905061144d565b506060828960a40184336000905af158600e01573d6000803e3d6000fd5b3d6001141558600a015760016000f35b815160408301513d6000853e8b8b82606087013350600060045af150596114bd8d3d611416565b8c016114c981876113ff565b5b828110156114e157600081526020810190506114ca565b50839d5050505050505050565b60006115016114fc84611ac2565b611a91565b9050828152602081018484840111156115225760008061151f6110f8565b50505b61152d848285611bb6565b509392505050565b60008135905061154481611c0b565b92915050565b60008083601f840112611565576000806115626110f8565b50505b8235905067ffffffffffffffff811115611587576000806115846110f8565b50505b6020830191508360208202830111156115a8576000806115a56110f8565b50505b9250929050565b6000815190506115be81611c2b565b92915050565b600082601f8301126115de576000806115db6110f8565b50505b81356115ee8482602086016114ee565b91505092915050565b6000602082840312156116125760008061160f6110f8565b50505b600061162084828501611535565b91505092915050565b600080600060608486031215611647576000806116446110f8565b50505b600061165586828701611535565b935050602061166686828701611535565b925050604084013567ffffffffffffffff81111561168c576000806116896110f8565b50505b611698868287016115c4565b9150509250925092565b600080604083850312156116be576000806116bb6110f8565b50505b60006116cc85828601611535565b925050602083013567ffffffffffffffff8111156116f2576000806116ef6110f8565b50505b6116fe858286016115c4565b9150509250929050565b60008060208385031215611724576000806117216110f8565b50505b600083013567ffffffffffffffff811115611747576000806117446110f8565b50505b6117538582860161154a565b92509250509250929050565b60006020828403121561177a576000806117776110f8565b50505b6000611788848285016115af565b91505092915050565b6000602082840312156117ac576000806117a96110f8565b50505b600082013567ffffffffffffffff8111156117cf576000806117cc6110f8565b50505b6117db848285016115c4565b91505092915050565b60006117f0838361187c565b905092915050565b61180181611b6e565b82525050565b600061181282611b02565b61181c8185611b30565b93508360208202850161182e85611af2565b8060005b8581101561186a578484038952815161184b85826117e4565b945061185683611b23565b925060208a01995050600181019050611832565b50829750879550505050505092915050565b600061188782611b0d565b6118918185611b41565b93506118a1818560208601611bc5565b6118aa81611bfa565b840191505092915050565b60006118c082611b18565b6118ca8185611b52565b93506118da818560208601611bc5565b6118e381611bfa565b840191505092915050565b60006118f982611b18565b6119038185611b63565b9350611913818560208601611bc5565b80840191505092915050565b61192881611bac565b82525050565b600061193a82846118ee565b915081905092915050565b600060208201905061195a60008301846117f8565b92915050565b600060608201905061197560008301866117f8565b61198260208301856117f8565b61198f604083018461191f565b949350505050565b60006040820190506119ac60008301856117f8565b6119b9602083018461191f565b9392505050565b600060208201905081810360008301526119da8184611807565b905092915050565b600060208201905081810360008301526119fc81846118b5565b905092915050565b6000602082019050611a19600083018461191f565b92915050565b60008083356001602003843603038112611a4157600080611a3e6110f8565b50505b80840192508235915067ffffffffffffffff821115611a6857600080611a656110f8565b50505b602083019250600182023603831315611a8957600080611a866110f8565b50505b509250929050565b6000604051905081810181811067ffffffffffffffff82111715611ab857611ab7611bf8565b5b8060405250919050565b600067ffffffffffffffff821115611add57611adc611bf8565b5b601f19601f8301169050602081019050919050565b6000819050602082019050919050565b600081519050919050565b600081519050919050565b600081519050919050565b6000602082019050919050565b600082825260208201905092915050565b600082825260208201905092915050565b600082825260208201905092915050565b600081905092915050565b6000611b7982611b8c565b9050919050565b60008115159050919050565b600073ffffffffffffffffffffffffffffffffffffffff82169050919050565b6000819050919050565b82818337600083830152505050565b60005b83811015611be3578082015181840152602081019050611bc8565b83811115611bf2576000848401525b50505050565bfe5b6000601f19601f8301169050919050565b611c1481611b6e565b8114611c2857600080611c256110f8565b50505b50565b611c3481611b80565b8114611c4857600080611c456110f8565b50505b5056fe4f776e61626c653a206e6577206f776e657220697320746865207a65726f2061646472657373416464726573733a206c6f772d6c6576656c2064656c65676174652063616c6c206661696c6564416464726573733a2064656c65676174652063616c6c20746f206e6f6e2d636f6e7472616374",
  "linkReferences": {},
  "deployedLinkReferences": {}
}